{
  "contractName": "DEX",
  "abi": [
    {
      "anonymous": false,
      "inputs": [
        {
          "indexed": true,
          "internalType": "address",
          "name": "previousOwner",
          "type": "address"
        },
        {
          "indexed": true,
          "internalType": "address",
          "name": "newOwner",
          "type": "address"
        }
      ],
      "name": "OwnershipTransferred",
      "type": "event"
    },
    {
      "inputs": [
        {
          "internalType": "bytes32",
          "name": "ticker",
          "type": "bytes32"
        },
        {
          "internalType": "address",
          "name": "tokenAddress",
          "type": "address"
        }
      ],
      "name": "addToken",
      "outputs": [],
      "stateMutability": "nonpayable",
      "type": "function"
    },
    {
      "inputs": [
        {
          "internalType": "address",
          "name": "",
          "type": "address"
        },
        {
          "internalType": "bytes32",
          "name": "",
          "type": "bytes32"
        }
      ],
      "name": "balances",
      "outputs": [
        {
          "internalType": "uint256",
          "name": "",
          "type": "uint256"
        }
      ],
      "stateMutability": "view",
      "type": "function",
      "constant": true
    },
    {
      "inputs": [
        {
          "internalType": "uint256",
          "name": "amount",
          "type": "uint256"
        },
        {
          "internalType": "bytes32",
          "name": "ticker",
          "type": "bytes32"
        }
      ],
      "name": "deposit",
      "outputs": [],
      "stateMutability": "nonpayable",
      "type": "function"
    },
    {
      "inputs": [],
      "name": "nextOrderId",
      "outputs": [
        {
          "internalType": "uint256",
          "name": "",
          "type": "uint256"
        }
      ],
      "stateMutability": "view",
      "type": "function",
      "constant": true
    },
    {
      "inputs": [
        {
          "internalType": "bytes32",
          "name": "",
          "type": "bytes32"
        },
        {
          "internalType": "uint256",
          "name": "",
          "type": "uint256"
        },
        {
          "internalType": "uint256",
          "name": "",
          "type": "uint256"
        }
      ],
      "name": "orderBook",
      "outputs": [
        {
          "internalType": "uint256",
          "name": "id",
          "type": "uint256"
        },
        {
          "internalType": "address",
          "name": "trader",
          "type": "address"
        },
        {
          "internalType": "enum DEX.Side",
          "name": "side",
          "type": "uint8"
        },
        {
          "internalType": "bytes32",
          "name": "ticker",
          "type": "bytes32"
        },
        {
          "internalType": "uint256",
          "name": "amount",
          "type": "uint256"
        },
        {
          "internalType": "uint256",
          "name": "price",
          "type": "uint256"
        }
      ],
      "stateMutability": "view",
      "type": "function",
      "constant": true
    },
    {
      "inputs": [],
      "name": "owner",
      "outputs": [
        {
          "internalType": "address",
          "name": "",
          "type": "address"
        }
      ],
      "stateMutability": "view",
      "type": "function",
      "constant": true
    },
    {
      "inputs": [],
      "name": "renounceOwnership",
      "outputs": [],
      "stateMutability": "nonpayable",
      "type": "function"
    },
    {
      "inputs": [
        {
          "internalType": "uint256",
          "name": "",
          "type": "uint256"
        }
      ],
      "name": "tokenList",
      "outputs": [
        {
          "internalType": "bytes32",
          "name": "",
          "type": "bytes32"
        }
      ],
      "stateMutability": "view",
      "type": "function",
      "constant": true
    },
    {
      "inputs": [
        {
          "internalType": "bytes32",
          "name": "",
          "type": "bytes32"
        }
      ],
      "name": "tokenMapping",
      "outputs": [
        {
          "internalType": "bytes32",
          "name": "ticker",
          "type": "bytes32"
        },
        {
          "internalType": "address",
          "name": "tokenAddress",
          "type": "address"
        }
      ],
      "stateMutability": "view",
      "type": "function",
      "constant": true
    },
    {
      "inputs": [
        {
          "internalType": "address",
          "name": "newOwner",
          "type": "address"
        }
      ],
      "name": "transferOwnership",
      "outputs": [],
      "stateMutability": "nonpayable",
      "type": "function"
    },
    {
      "inputs": [
        {
          "internalType": "uint256",
          "name": "amount",
          "type": "uint256"
        },
        {
          "internalType": "bytes32",
          "name": "ticker",
          "type": "bytes32"
        }
      ],
      "name": "withdraw",
      "outputs": [],
      "stateMutability": "nonpayable",
      "type": "function"
    },
    {
      "inputs": [
        {
          "internalType": "bytes32",
          "name": "ticker",
          "type": "bytes32"
        },
        {
          "internalType": "enum DEX.Side",
          "name": "side",
          "type": "uint8"
        }
      ],
      "name": "getOrderBook",
      "outputs": [
        {
          "components": [
            {
              "internalType": "uint256",
              "name": "id",
              "type": "uint256"
            },
            {
              "internalType": "address",
              "name": "trader",
              "type": "address"
            },
            {
              "internalType": "enum DEX.Side",
              "name": "side",
              "type": "uint8"
            },
            {
              "internalType": "bytes32",
              "name": "ticker",
              "type": "bytes32"
            },
            {
              "internalType": "uint256",
              "name": "amount",
              "type": "uint256"
            },
            {
              "internalType": "uint256",
              "name": "price",
              "type": "uint256"
            }
          ],
          "internalType": "struct DEX.Order[]",
          "name": "",
          "type": "tuple[]"
        }
      ],
      "stateMutability": "view",
      "type": "function",
      "constant": true
    },
    {
      "inputs": [
        {
          "internalType": "enum DEX.Side",
          "name": "side",
          "type": "uint8"
        },
        {
          "internalType": "bytes32",
          "name": "ticker",
          "type": "bytes32"
        },
        {
          "internalType": "uint256",
          "name": "amount",
          "type": "uint256"
        },
        {
          "internalType": "uint256",
          "name": "price",
          "type": "uint256"
        }
      ],
      "name": "createLimitOrder",
      "outputs": [],
      "stateMutability": "nonpayable",
      "type": "function"
    }
  ],
  "bytecode": "0x608060405260006004553480156200001657600080fd5b50620000376200002b6200003d60201b60201c565b6200004560201b60201c565b62000109565b600033905090565b60008060009054906101000a900473ffffffffffffffffffffffffffffffffffffffff169050816000806101000a81548173ffffffffffffffffffffffffffffffffffffffff021916908373ffffffffffffffffffffffffffffffffffffffff1602179055508173ffffffffffffffffffffffffffffffffffffffff168173ffffffffffffffffffffffffffffffffffffffff167f8be0079c531659141344cd1fd0a4f28419497f9722a3daafe3b4186f6b6457e060405160405180910390a35050565b61264a80620001196000396000f3fe608060405234801561001057600080fd5b50600436106100cf5760003560e01c80638da5cb5b1161008c578063a8d2021a11610066578063a8d2021a14610218578063ba58ea6814610234578063c9630cb014610264578063f2fde38b14610280576100cf565b80638da5cb5b146101ae5780639776aacf146101cc5780639ead7222146101e8576100cf565b80630bb431b6146100d45780631f14df69146101095780632a58b33014610139578063667cb4ba146101575780636f3b62f914610188578063715018a6146101a4575b600080fd5b6100ee60048036038101906100e99190611d9b565b61029c565b604051610100969594939291906122bd565b60405180910390f35b610123600480360381019061011e9190611c95565b61032f565b60405161013091906122a2565b60405180910390f35b610141610354565b60405161014e91906122a2565b60405180910390f35b610171600480360381019061016c9190611cfa565b61035a565b60405161017f9291906121f9565b60405180910390f35b6101a2600480360381019061019d9190611dea565b61039e565b005b6101ac61122b565b005b6101b66112b3565b6040516101c39190612141565b60405180910390f35b6101e660048036038101906101e19190611d23565b6112dc565b005b61020260048036038101906101fd9190611e4d565b611417565b60405161020f91906121de565b60405180910390f35b610232600480360381019061022d9190611e76565b61143b565b005b61024e60048036038101906102499190611d5f565b6116a5565b60405161025b91906121bc565b60405180910390f35b61027e60048036038101906102799190611e76565b611866565b005b61029a60048036038101906102959190611c6c565b611a3f565b005b600560205282600052604060002060205281600052604060002081815481106102c457600080fd5b906000526020600020906005020160009250925050508060000154908060010160009054906101000a900473ffffffffffffffffffffffffffffffffffffffff16908060010160149054906101000a900460ff16908060020154908060030154908060040154905086565b6003602052816000526040600020602052806000526040600020600091509150505481565b60045481565b60016020528060005260406000206000915090508060000154908060010160009054906101000a900473ffffffffffffffffffffffffffffffffffffffff16905082565b600060018111156103d8577f4e487b7100000000000000000000000000000000000000000000000000000000600052602160045260246000fd5b846001811115610411577f4e487b7100000000000000000000000000000000000000000000000000000000600052602160045260246000fd5b14156104a457808261042391906123be565b600360003373ffffffffffffffffffffffffffffffffffffffff1673ffffffffffffffffffffffffffffffffffffffff16815260200190815260200160002060007f4554480000000000000000000000000000000000000000000000000000000000815260200190815260200160002054101561049f57600080fd5b61057b565b6001808111156104dd577f4e487b7100000000000000000000000000000000000000000000000000000000600052602160045260246000fd5b846001811115610516577f4e487b7100000000000000000000000000000000000000000000000000000000600052602160045260246000fd5b141561057a5781600360003373ffffffffffffffffffffffffffffffffffffffff1673ffffffffffffffffffffffffffffffffffffffff168152602001908152602001600020600085815260200190815260200160002054101561057957600080fd5b5b5b60006005600085815260200190815260200160002060008660018111156105cb577f4e487b7100000000000000000000000000000000000000000000000000000000600052602160045260246000fd5b81526020019081526020016000209050806040518060c0016040528060045481526020013373ffffffffffffffffffffffffffffffffffffffff168152602001876001811115610644577f4e487b7100000000000000000000000000000000000000000000000000000000600052602160045260246000fd5b81526020018681526020018581526020018481525090806001815401808255809150506001900390600052602060002090600502016000909190919091506000820151816000015560208201518160010160006101000a81548173ffffffffffffffffffffffffffffffffffffffff021916908373ffffffffffffffffffffffffffffffffffffffff16021790555060408201518160010160146101000a81548160ff02191690836001811115610724577f4e487b7100000000000000000000000000000000000000000000000000000000600052602160045260246000fd5b0217905550606082015181600201556080820151816003015560a0820151816004015550506004600081548092919061075c906124ed565b9190505550600080828054905011610775576000610787565b600182805490506107869190612418565b5b9050600060018111156107c3577f4e487b7100000000000000000000000000000000000000000000000000000000600052602160045260246000fd5b8660018111156107fc577f4e487b7100000000000000000000000000000000000000000000000000000000600052602160045260246000fd5b1415610cd8575b6000811115610cd357818181548110610845577f4e487b7100000000000000000000000000000000000000000000000000000000600052603260045260246000fd5b906000526020600020906005020160040154826001836108659190612418565b8154811061089c577f4e487b7100000000000000000000000000000000000000000000000000000000600052603260045260246000fd5b90600052602060002090600502016004015411156108b957610cd3565b60008282815481106108f4577f4e487b7100000000000000000000000000000000000000000000000000000000600052603260045260246000fd5b90600052602060002090600502016040518060c0016040529081600082015481526020016001820160009054906101000a900473ffffffffffffffffffffffffffffffffffffffff1673ffffffffffffffffffffffffffffffffffffffff1673ffffffffffffffffffffffffffffffffffffffff1681526020016001820160149054906101000a900460ff1660018111156109b8577f4e487b7100000000000000000000000000000000000000000000000000000000600052602160045260246000fd5b60018111156109f0577f4e487b7100000000000000000000000000000000000000000000000000000000600052602160045260246000fd5b81526020016002820154815260200160038201548152602001600482015481525050905082600183610a229190612418565b81548110610a59577f4e487b7100000000000000000000000000000000000000000000000000000000600052603260045260246000fd5b9060005260206000209060050201838381548110610aa0577f4e487b7100000000000000000000000000000000000000000000000000000000600052603260045260246000fd5b9060005260206000209060050201600082015481600001556001820160009054906101000a900473ffffffffffffffffffffffffffffffffffffffff168160010160006101000a81548173ffffffffffffffffffffffffffffffffffffffff021916908373ffffffffffffffffffffffffffffffffffffffff1602179055506001820160149054906101000a900460ff168160010160146101000a81548160ff02191690836001811115610b7d577f4e487b7100000000000000000000000000000000000000000000000000000000600052602160045260246000fd5b02179055506002820154816002015560038201548160030155600482015481600401559050508083600184610bb29190612418565b81548110610be9577f4e487b7100000000000000000000000000000000000000000000000000000000600052603260045260246000fd5b90600052602060002090600502016000820151816000015560208201518160010160006101000a81548173ffffffffffffffffffffffffffffffffffffffff021916908373ffffffffffffffffffffffffffffffffffffffff16021790555060408201518160010160146101000a81548160ff02191690836001811115610c99577f4e487b7100000000000000000000000000000000000000000000000000000000600052602160045260246000fd5b0217905550606082015181600201556080820151816003015560a082015181600401559050508180610cca906124c3565b92505050610803565b611223565b600180811115610d11577f4e487b7100000000000000000000000000000000000000000000000000000000600052602160045260246000fd5b866001811115610d4a577f4e487b7100000000000000000000000000000000000000000000000000000000600052602160045260246000fd5b1415611222575b600081111561122157818181548110610d93577f4e487b7100000000000000000000000000000000000000000000000000000000600052603260045260246000fd5b90600052602060002090600502016004015482600183610db39190612418565b81548110610dea577f4e487b7100000000000000000000000000000000000000000000000000000000600052603260045260246000fd5b9060005260206000209060050201600401541015610e0757611221565b6000828281548110610e42577f4e487b7100000000000000000000000000000000000000000000000000000000600052603260045260246000fd5b90600052602060002090600502016040518060c0016040529081600082015481526020016001820160009054906101000a900473ffffffffffffffffffffffffffffffffffffffff1673ffffffffffffffffffffffffffffffffffffffff1673ffffffffffffffffffffffffffffffffffffffff1681526020016001820160149054906101000a900460ff166001811115610f06577f4e487b7100000000000000000000000000000000000000000000000000000000600052602160045260246000fd5b6001811115610f3e577f4e487b7100000000000000000000000000000000000000000000000000000000600052602160045260246000fd5b81526020016002820154815260200160038201548152602001600482015481525050905082600183610f709190612418565b81548110610fa7577f4e487b7100000000000000000000000000000000000000000000000000000000600052603260045260246000fd5b9060005260206000209060050201838381548110610fee577f4e487b7100000000000000000000000000000000000000000000000000000000600052603260045260246000fd5b9060005260206000209060050201600082015481600001556001820160009054906101000a900473ffffffffffffffffffffffffffffffffffffffff168160010160006101000a81548173ffffffffffffffffffffffffffffffffffffffff021916908373ffffffffffffffffffffffffffffffffffffffff1602179055506001820160149054906101000a900460ff168160010160146101000a81548160ff021916908360018111156110cb577f4e487b7100000000000000000000000000000000000000000000000000000000600052602160045260246000fd5b021790555060028201548160020155600382015481600301556004820154816004015590505080836001846111009190612418565b81548110611137577f4e487b7100000000000000000000000000000000000000000000000000000000600052603260045260246000fd5b90600052602060002090600502016000820151816000015560208201518160010160006101000a81548173ffffffffffffffffffffffffffffffffffffffff021916908373ffffffffffffffffffffffffffffffffffffffff16021790555060408201518160010160146101000a81548160ff021916908360018111156111e7577f4e487b7100000000000000000000000000000000000000000000000000000000600052602160045260246000fd5b0217905550606082015181600201556080820151816003015560a082015181600401559050508180611218906124c3565b92505050610d51565b5b5b505050505050565b611233611b37565b73ffffffffffffffffffffffffffffffffffffffff166112516112b3565b73ffffffffffffffffffffffffffffffffffffffff16146112a7576040517f08c379a000000000000000000000000000000000000000000000000000000000815260040161129e90612262565b60405180910390fd5b6112b16000611b3f565b565b60008060009054906101000a900473ffffffffffffffffffffffffffffffffffffffff16905090565b6112e4611b37565b73ffffffffffffffffffffffffffffffffffffffff166113026112b3565b73ffffffffffffffffffffffffffffffffffffffff1614611358576040517f08c379a000000000000000000000000000000000000000000000000000000000815260040161134f90612262565b60405180910390fd5b60405180604001604052808381526020018273ffffffffffffffffffffffffffffffffffffffff16815250600160008481526020019081526020016000206000820151816000015560208201518160010160006101000a81548173ffffffffffffffffffffffffffffffffffffffff021916908373ffffffffffffffffffffffffffffffffffffffff16021790555090505060028290806001815401808255809150506001900390600052602060002001600090919091909150555050565b6002818154811061142757600080fd5b906000526020600020016000915090505481565b80600073ffffffffffffffffffffffffffffffffffffffff166001600083815260200190815260200160002060010160009054906101000a900473ffffffffffffffffffffffffffffffffffffffff1673ffffffffffffffffffffffffffffffffffffffff1614156114e2576040517f08c379a00000000000000000000000000000000000000000000000000000000081526004016114d990612222565b60405180910390fd5b82600360003373ffffffffffffffffffffffffffffffffffffffff1673ffffffffffffffffffffffffffffffffffffffff1681526020019081526020016000206000848152602001908152602001600020541015611575576040517f08c379a000000000000000000000000000000000000000000000000000000000815260040161156c90612282565b60405180910390fd5b82600360003373ffffffffffffffffffffffffffffffffffffffff1673ffffffffffffffffffffffffffffffffffffffff168152602001908152602001600020600084815260200190815260200160002060008282546115d59190612418565b925050819055506001600083815260200190815260200160002060010160009054906101000a900473ffffffffffffffffffffffffffffffffffffffff1673ffffffffffffffffffffffffffffffffffffffff1663a9059cbb33856040518363ffffffff1660e01b815260040161164d929190612193565b602060405180830381600087803b15801561166757600080fd5b505af115801561167b573d6000803e3d6000fd5b505050506040513d601f19601f8201168201806040525081019061169f9190611cd1565b50505050565b60606005600084815260200190815260200160002060008360018111156116f5577f4e487b7100000000000000000000000000000000000000000000000000000000600052602160045260246000fd5b8152602001908152602001600020805480602002602001604051908101604052809291908181526020016000905b8282101561185a57838290600052602060002090600502016040518060c0016040529081600082015481526020016001820160009054906101000a900473ffffffffffffffffffffffffffffffffffffffff1673ffffffffffffffffffffffffffffffffffffffff1673ffffffffffffffffffffffffffffffffffffffff1681526020016001820160149054906101000a900460ff1660018111156117f1577f4e487b7100000000000000000000000000000000000000000000000000000000600052602160045260246000fd5b6001811115611829577f4e487b7100000000000000000000000000000000000000000000000000000000600052602160045260246000fd5b8152602001600282015481526020016003820154815260200160048201548152505081526020019060010190611723565b50505050905092915050565b80600073ffffffffffffffffffffffffffffffffffffffff166001600083815260200190815260200160002060010160009054906101000a900473ffffffffffffffffffffffffffffffffffffffff1673ffffffffffffffffffffffffffffffffffffffff16141561190d576040517f08c379a000000000000000000000000000000000000000000000000000000000815260040161190490612222565b60405180910390fd5b6001600083815260200190815260200160002060010160009054906101000a900473ffffffffffffffffffffffffffffffffffffffff1673ffffffffffffffffffffffffffffffffffffffff166323b872dd3330866040518463ffffffff1660e01b81526004016119809392919061215c565b602060405180830381600087803b15801561199a57600080fd5b505af11580156119ae573d6000803e3d6000fd5b505050506040513d601f19601f820116820180604052508101906119d29190611cd1565b5082600360003373ffffffffffffffffffffffffffffffffffffffff1673ffffffffffffffffffffffffffffffffffffffff16815260200190815260200160002060008481526020019081526020016000206000828254611a339190612368565b92505081905550505050565b611a47611b37565b73ffffffffffffffffffffffffffffffffffffffff16611a656112b3565b73ffffffffffffffffffffffffffffffffffffffff1614611abb576040517f08c379a0000000000000000000000000000000000000000000000000000000008152600401611ab290612262565b60405180910390fd5b600073ffffffffffffffffffffffffffffffffffffffff168173ffffffffffffffffffffffffffffffffffffffff161415611b2b576040517f08c379a0000000000000000000000000000000000000000000000000000000008152600401611b2290612242565b60405180910390fd5b611b3481611b3f565b50565b600033905090565b60008060009054906101000a900473ffffffffffffffffffffffffffffffffffffffff169050816000806101000a81548173ffffffffffffffffffffffffffffffffffffffff021916908373ffffffffffffffffffffffffffffffffffffffff1602179055508173ffffffffffffffffffffffffffffffffffffffff168173ffffffffffffffffffffffffffffffffffffffff167f8be0079c531659141344cd1fd0a4f28419497f9722a3daafe3b4186f6b6457e060405160405180910390a35050565b600081359050611c12816125a8565b92915050565b600081519050611c27816125bf565b92915050565b600081359050611c3c816125d6565b92915050565b600081359050611c51816125ed565b92915050565b600081359050611c66816125fd565b92915050565b600060208284031215611c7e57600080fd5b6000611c8c84828501611c03565b91505092915050565b60008060408385031215611ca857600080fd5b6000611cb685828601611c03565b9250506020611cc785828601611c2d565b9150509250929050565b600060208284031215611ce357600080fd5b6000611cf184828501611c18565b91505092915050565b600060208284031215611d0c57600080fd5b6000611d1a84828501611c2d565b91505092915050565b60008060408385031215611d3657600080fd5b6000611d4485828601611c2d565b9250506020611d5585828601611c03565b9150509250929050565b60008060408385031215611d7257600080fd5b6000611d8085828601611c2d565b9250506020611d9185828601611c42565b9150509250929050565b600080600060608486031215611db057600080fd5b6000611dbe86828701611c2d565b9350506020611dcf86828701611c57565b9250506040611de086828701611c57565b9150509250925092565b60008060008060808587031215611e0057600080fd5b6000611e0e87828801611c42565b9450506020611e1f87828801611c2d565b9350506040611e3087828801611c57565b9250506060611e4187828801611c57565b91505092959194509250565b600060208284031215611e5f57600080fd5b6000611e6d84828501611c57565b91505092915050565b60008060408385031215611e8957600080fd5b6000611e9785828601611c57565b9250506020611ea885828601611c2d565b9150509250929050565b6000611ebe83836120a8565b60c08301905092915050565b611ed38161244c565b82525050565b611ee28161244c565b82525050565b6000611ef38261232e565b611efd8185612346565b9350611f088361231e565b8060005b83811015611f39578151611f208882611eb2565b9750611f2b83612339565b925050600181019050611f0c565b5085935050505092915050565b611f4f8161246a565b82525050565b611f5e8161246a565b82525050565b611f6d816124b1565b82525050565b611f7c816124b1565b82525050565b6000611f8f601383612357565b91507f546f6b656e20646f65736e2774206578697374000000000000000000000000006000830152602082019050919050565b6000611fcf602683612357565b91507f4f776e61626c653a206e6577206f776e657220697320746865207a65726f206160008301527f64647265737300000000000000000000000000000000000000000000000000006020830152604082019050919050565b6000612035602083612357565b91507f4f776e61626c653a2063616c6c6572206973206e6f7420746865206f776e65726000830152602082019050919050565b6000612075601683612357565b91507f42616c616e6365206e6f742073756666696369656e74000000000000000000006000830152602082019050919050565b60c0820160008201516120be6000850182612123565b5060208201516120d16020850182611eca565b5060408201516120e46040850182611f64565b5060608201516120f76060850182611f46565b50608082015161210a6080850182612123565b5060a082015161211d60a0850182612123565b50505050565b61212c816124a7565b82525050565b61213b816124a7565b82525050565b60006020820190506121566000830184611ed9565b92915050565b60006060820190506121716000830186611ed9565b61217e6020830185611ed9565b61218b6040830184612132565b949350505050565b60006040820190506121a86000830185611ed9565b6121b56020830184612132565b9392505050565b600060208201905081810360008301526121d68184611ee8565b905092915050565b60006020820190506121f36000830184611f55565b92915050565b600060408201905061220e6000830185611f55565b61221b6020830184611ed9565b9392505050565b6000602082019050818103600083015261223b81611f82565b9050919050565b6000602082019050818103600083015261225b81611fc2565b9050919050565b6000602082019050818103600083015261227b81612028565b9050919050565b6000602082019050818103600083015261229b81612068565b9050919050565b60006020820190506122b76000830184612132565b92915050565b600060c0820190506122d26000830189612132565b6122df6020830188611ed9565b6122ec6040830187611f73565b6122f96060830186611f55565b6123066080830185612132565b61231360a0830184612132565b979650505050505050565b6000819050602082019050919050565b600081519050919050565b6000602082019050919050565b600082825260208201905092915050565b600082825260208201905092915050565b6000612373826124a7565b915061237e836124a7565b9250827fffffffffffffffffffffffffffffffffffffffffffffffffffffffffffffffff038211156123b3576123b2612536565b5b828201905092915050565b60006123c9826124a7565b91506123d4836124a7565b9250817fffffffffffffffffffffffffffffffffffffffffffffffffffffffffffffffff048311821515161561240d5761240c612536565b5b828202905092915050565b6000612423826124a7565b915061242e836124a7565b92508282101561244157612440612536565b5b828203905092915050565b600061245782612487565b9050919050565b60008115159050919050565b6000819050919050565b600081905061248282612594565b919050565b600073ffffffffffffffffffffffffffffffffffffffff82169050919050565b6000819050919050565b60006124bc82612474565b9050919050565b60006124ce826124a7565b915060008214156124e2576124e1612536565b5b600182039050919050565b60006124f8826124a7565b91507fffffffffffffffffffffffffffffffffffffffffffffffffffffffffffffffff82141561252b5761252a612536565b5b600182019050919050565b7f4e487b7100000000000000000000000000000000000000000000000000000000600052601160045260246000fd5b7f4e487b7100000000000000000000000000000000000000000000000000000000600052602160045260246000fd5b600281106125a5576125a4612565565b5b50565b6125b18161244c565b81146125bc57600080fd5b50565b6125c88161245e565b81146125d357600080fd5b50565b6125df8161246a565b81146125ea57600080fd5b50565b600281106125fa57600080fd5b50565b612606816124a7565b811461261157600080fd5b5056fea2646970667358221220b624c69ef347dda05ec87552a07ea1740d8cd0182ae904089eceb874b12dcdf764736f6c63430008000033",
  "immutableReferences": {},
  "source": "pragma solidity ^0.8.0;\n\nimport \"./Wallet.sol\";\n\ncontract DEX is Wallet {\n\n    enum Side{\n        BUY,\n        SELL\n    }\n\n    struct Order {\n        uint id;\n        address trader;\n        Side side;\n        bytes32 ticker;\n        uint amount;\n        uint price;\n    }\n    uint public nextOrderId = 0;\n\n    mapping(bytes32 => mapping(uint => Order[])) public orderBook;\n\n    function getOrderBook(bytes32 ticker, Side side) view public returns(Order[] memory){\n        return orderBook[ticker][uint(side)];\n    }\n\n    function createLimitOrder(Side side, bytes32 ticker, uint amount, uint price) public {\n        if(side == Side.BUY){\n            require(balances[msg.sender][\"ETH\"] >= amount * price);\n        }\n        else if(side == Side.SELL){\n            require(balances[msg.sender][ticker] >= amount);\n        }\n\n        Order[] storage orders = orderBook[ticker][uint(side)];\n        //[Order1, Order2, ...]\n        orders.push(Order(nextOrderId, msg.sender, side, ticker, amount, price));\n        nextOrderId++;\n\n        uint i = orders.length > 0 ? orders.length - 1 : 0;\n       \n        if(side == Side.BUY){\n            while(i > 0){\n                if(orders[i - 1].price > orders[i].price){\n                    break;\n                }\n                Order memory orderToMove = orders[i];\n                orders[i] = orders[i - 1];\n                orders[i - 1] = orderToMove;\n                i--;\n            }\n\n        }\n        else if(side == Side.SELL){\n            while(i > 0){\n                if(orders[i - 1].price < orders[i].price){\n                    break;\n                }\n                Order memory orderToMove = orders[i];\n                orders[i] = orders[i - 1];\n                orders[i - 1] = orderToMove;\n                i--;\n            }\n        }\n    }\n}",
  "sourcePath": "/Users/ivanlieskov/Desktop/DEX/contracts/dex.sol",
  "compiler": {
    "name": "solc",
    "version": "0.8.0+commit.c7dfd78e.Emscripten.clang"
  },
  "schemaVersion": "3.4.7",
  "updatedAt": "2022-05-12T20:36:35.093Z",
  "networkType": "ethereum",
  "devdoc": {
    "kind": "dev",
    "methods": {
      "owner()": {
        "details": "Returns the address of the current owner."
      },
      "renounceOwnership()": {
        "details": "Leaves the contract without owner. It will not be possible to call `onlyOwner` functions anymore. Can only be called by the current owner. NOTE: Renouncing ownership will leave the contract without an owner, thereby removing any functionality that is only available to the owner."
      },
      "transferOwnership(address)": {
        "details": "Transfers ownership of the contract to a new account (`newOwner`). Can only be called by the current owner."
      }
    },
    "version": 1
  },
  "userdoc": {
    "kind": "user",
    "methods": {},
    "version": 1
  }
}