{
  "contractName": "DEX",
  "abi": [
    {
      "anonymous": false,
      "inputs": [
        {
          "indexed": true,
          "internalType": "address",
          "name": "previousOwner",
          "type": "address"
        },
        {
          "indexed": true,
          "internalType": "address",
          "name": "newOwner",
          "type": "address"
        }
      ],
      "name": "OwnershipTransferred",
      "type": "event"
    },
    {
      "inputs": [
        {
          "internalType": "bytes32",
          "name": "ticker",
          "type": "bytes32"
        },
        {
          "internalType": "address",
          "name": "tokenAddress",
          "type": "address"
        }
      ],
      "name": "addToken",
      "outputs": [],
      "stateMutability": "nonpayable",
      "type": "function"
    },
    {
      "inputs": [
        {
          "internalType": "address",
          "name": "",
          "type": "address"
        },
        {
          "internalType": "bytes32",
          "name": "",
          "type": "bytes32"
        }
      ],
      "name": "balances",
      "outputs": [
        {
          "internalType": "uint256",
          "name": "",
          "type": "uint256"
        }
      ],
      "stateMutability": "view",
      "type": "function"
    },
    {
      "inputs": [
        {
          "internalType": "uint256",
          "name": "amount",
          "type": "uint256"
        },
        {
          "internalType": "bytes32",
          "name": "ticker",
          "type": "bytes32"
        }
      ],
      "name": "deposit",
      "outputs": [],
      "stateMutability": "nonpayable",
      "type": "function"
    },
    {
      "inputs": [
        {
          "internalType": "bytes32",
          "name": "",
          "type": "bytes32"
        },
        {
          "internalType": "uint256",
          "name": "",
          "type": "uint256"
        },
        {
          "internalType": "uint256",
          "name": "",
          "type": "uint256"
        }
      ],
      "name": "orderBook",
      "outputs": [
        {
          "internalType": "uint256",
          "name": "id",
          "type": "uint256"
        },
        {
          "internalType": "address",
          "name": "trader",
          "type": "address"
        },
        {
          "internalType": "enum DEX.Side",
          "name": "side",
          "type": "uint8"
        },
        {
          "internalType": "bytes32",
          "name": "ticker",
          "type": "bytes32"
        },
        {
          "internalType": "uint256",
          "name": "amount",
          "type": "uint256"
        },
        {
          "internalType": "uint256",
          "name": "price",
          "type": "uint256"
        }
      ],
      "stateMutability": "view",
      "type": "function"
    },
    {
      "inputs": [],
      "name": "owner",
      "outputs": [
        {
          "internalType": "address",
          "name": "",
          "type": "address"
        }
      ],
      "stateMutability": "view",
      "type": "function"
    },
    {
      "inputs": [],
      "name": "renounceOwnership",
      "outputs": [],
      "stateMutability": "nonpayable",
      "type": "function"
    },
    {
      "inputs": [
        {
          "internalType": "uint256",
          "name": "",
          "type": "uint256"
        }
      ],
      "name": "tokenList",
      "outputs": [
        {
          "internalType": "bytes32",
          "name": "",
          "type": "bytes32"
        }
      ],
      "stateMutability": "view",
      "type": "function"
    },
    {
      "inputs": [
        {
          "internalType": "bytes32",
          "name": "",
          "type": "bytes32"
        }
      ],
      "name": "tokenMapping",
      "outputs": [
        {
          "internalType": "bytes32",
          "name": "ticker",
          "type": "bytes32"
        },
        {
          "internalType": "address",
          "name": "tokenAddress",
          "type": "address"
        }
      ],
      "stateMutability": "view",
      "type": "function"
    },
    {
      "inputs": [
        {
          "internalType": "address",
          "name": "newOwner",
          "type": "address"
        }
      ],
      "name": "transferOwnership",
      "outputs": [],
      "stateMutability": "nonpayable",
      "type": "function"
    },
    {
      "inputs": [
        {
          "internalType": "uint256",
          "name": "amount",
          "type": "uint256"
        },
        {
          "internalType": "bytes32",
          "name": "ticker",
          "type": "bytes32"
        }
      ],
      "name": "withdraw",
      "outputs": [],
      "stateMutability": "nonpayable",
      "type": "function"
    },
    {
      "inputs": [
        {
          "internalType": "bytes32",
          "name": "ticker",
          "type": "bytes32"
        },
        {
          "internalType": "enum DEX.Side",
          "name": "side",
          "type": "uint8"
        }
      ],
      "name": "getOrderBook",
      "outputs": [
        {
          "components": [
            {
              "internalType": "uint256",
              "name": "id",
              "type": "uint256"
            },
            {
              "internalType": "address",
              "name": "trader",
              "type": "address"
            },
            {
              "internalType": "enum DEX.Side",
              "name": "side",
              "type": "uint8"
            },
            {
              "internalType": "bytes32",
              "name": "ticker",
              "type": "bytes32"
            },
            {
              "internalType": "uint256",
              "name": "amount",
              "type": "uint256"
            },
            {
              "internalType": "uint256",
              "name": "price",
              "type": "uint256"
            }
          ],
          "internalType": "struct DEX.Order[]",
          "name": "",
          "type": "tuple[]"
        }
      ],
      "stateMutability": "view",
      "type": "function"
    },
    {
      "inputs": [
        {
          "internalType": "enum DEX.Side",
          "name": "side",
          "type": "uint8"
        },
        {
          "internalType": "bytes32",
          "name": "ticker",
          "type": "bytes32"
        },
        {
          "internalType": "uint256",
          "name": "amount",
          "type": "uint256"
        },
        {
          "internalType": "uint256",
          "name": "price",
          "type": "uint256"
        }
      ],
      "name": "createLimitOrder",
      "outputs": [],
      "stateMutability": "nonpayable",
      "type": "function"
    }
  ],
  "bytecode": "0x608060405234801561001057600080fd5b5061002d61002261003260201b60201c565b61003a60201b60201c565b6100fe565b600033905090565b60008060009054906101000a900473ffffffffffffffffffffffffffffffffffffffff169050816000806101000a81548173ffffffffffffffffffffffffffffffffffffffff021916908373ffffffffffffffffffffffffffffffffffffffff1602179055508173ffffffffffffffffffffffffffffffffffffffff168173ffffffffffffffffffffffffffffffffffffffff167f8be0079c531659141344cd1fd0a4f28419497f9722a3daafe3b4186f6b6457e060405160405180910390a35050565b6118138061010d6000396000f3fe608060405234801561001057600080fd5b50600436106100b45760003560e01c80639776aacf116100715780639776aacf146101935780639ead7222146101af578063a8d2021a146101df578063ba58ea68146101fb578063c9630cb01461022b578063f2fde38b14610247576100b4565b80630bb431b6146100b95780631f14df69146100ee578063667cb4ba1461011e5780636f3b62f91461014f578063715018a61461016b5780638da5cb5b14610175575b600080fd5b6100d360048036038101906100ce9190610fd7565b610263565b6040516100e5969594939291906114f9565b60405180910390f35b61010860048036038101906101039190610ed1565b6102f6565b60405161011591906114de565b60405180910390f35b61013860048036038101906101339190610f36565b61031b565b604051610146929190611435565b60405180910390f35b61016960048036038101906101649190611026565b61035f565b005b610173610467565b005b61017d6104ef565b60405161018a919061137d565b60405180910390f35b6101ad60048036038101906101a89190610f5f565b610518565b005b6101c960048036038101906101c49190611089565b610653565b6040516101d6919061141a565b60405180910390f35b6101f960048036038101906101f491906110b2565b610677565b005b61021560048036038101906102109190610f9b565b6108e1565b60405161022291906113f8565b60405180910390f35b610245600480360381019061024091906110b2565b610aa2565b005b610261600480360381019061025c9190610ea8565b610c7b565b005b6004602052826000526040600020602052816000526040600020818154811061028b57600080fd5b906000526020600020906005020160009250925050508060000154908060010160009054906101000a900473ffffffffffffffffffffffffffffffffffffffff16908060010160149054906101000a900460ff16908060020154908060030154908060040154905086565b6003602052816000526040600020602052806000526040600020600091509150505481565b60016020528060005260406000206000915090508060000154908060010160009054906101000a900473ffffffffffffffffffffffffffffffffffffffff16905082565b60006001811115610399577f4e487b7100000000000000000000000000000000000000000000000000000000600052602160045260246000fd5b8460018111156103d2577f4e487b7100000000000000000000000000000000000000000000000000000000600052602160045260246000fd5b14156104615780826103e491906115fa565b600360003373ffffffffffffffffffffffffffffffffffffffff1673ffffffffffffffffffffffffffffffffffffffff16815260200190815260200160002060007f4554480000000000000000000000000000000000000000000000000000000000815260200190815260200160002054101561046057600080fd5b5b50505050565b61046f610d73565b73ffffffffffffffffffffffffffffffffffffffff1661048d6104ef565b73ffffffffffffffffffffffffffffffffffffffff16146104e3576040517f08c379a00000000000000000000000000000000000000000000000000000000081526004016104da9061149e565b60405180910390fd5b6104ed6000610d7b565b565b60008060009054906101000a900473ffffffffffffffffffffffffffffffffffffffff16905090565b610520610d73565b73ffffffffffffffffffffffffffffffffffffffff1661053e6104ef565b73ffffffffffffffffffffffffffffffffffffffff1614610594576040517f08c379a000000000000000000000000000000000000000000000000000000000815260040161058b9061149e565b60405180910390fd5b60405180604001604052808381526020018273ffffffffffffffffffffffffffffffffffffffff16815250600160008481526020019081526020016000206000820151816000015560208201518160010160006101000a81548173ffffffffffffffffffffffffffffffffffffffff021916908373ffffffffffffffffffffffffffffffffffffffff16021790555090505060028290806001815401808255809150506001900390600052602060002001600090919091909150555050565b6002818154811061066357600080fd5b906000526020600020016000915090505481565b80600073ffffffffffffffffffffffffffffffffffffffff166001600083815260200190815260200160002060010160009054906101000a900473ffffffffffffffffffffffffffffffffffffffff1673ffffffffffffffffffffffffffffffffffffffff16141561071e576040517f08c379a00000000000000000000000000000000000000000000000000000000081526004016107159061145e565b60405180910390fd5b82600360003373ffffffffffffffffffffffffffffffffffffffff1673ffffffffffffffffffffffffffffffffffffffff16815260200190815260200160002060008481526020019081526020016000205410156107b1576040517f08c379a00000000000000000000000000000000000000000000000000000000081526004016107a8906114be565b60405180910390fd5b82600360003373ffffffffffffffffffffffffffffffffffffffff1673ffffffffffffffffffffffffffffffffffffffff168152602001908152602001600020600084815260200190815260200160002060008282546108119190611654565b925050819055506001600083815260200190815260200160002060010160009054906101000a900473ffffffffffffffffffffffffffffffffffffffff1673ffffffffffffffffffffffffffffffffffffffff1663a9059cbb33856040518363ffffffff1660e01b81526004016108899291906113cf565b602060405180830381600087803b1580156108a357600080fd5b505af11580156108b7573d6000803e3d6000fd5b505050506040513d601f19601f820116820180604052508101906108db9190610f0d565b50505050565b6060600460008481526020019081526020016000206000836001811115610931577f4e487b7100000000000000000000000000000000000000000000000000000000600052602160045260246000fd5b8152602001908152602001600020805480602002602001604051908101604052809291908181526020016000905b82821015610a9657838290600052602060002090600502016040518060c0016040529081600082015481526020016001820160009054906101000a900473ffffffffffffffffffffffffffffffffffffffff1673ffffffffffffffffffffffffffffffffffffffff1673ffffffffffffffffffffffffffffffffffffffff1681526020016001820160149054906101000a900460ff166001811115610a2d577f4e487b7100000000000000000000000000000000000000000000000000000000600052602160045260246000fd5b6001811115610a65577f4e487b7100000000000000000000000000000000000000000000000000000000600052602160045260246000fd5b815260200160028201548152602001600382015481526020016004820154815250508152602001906001019061095f565b50505050905092915050565b80600073ffffffffffffffffffffffffffffffffffffffff166001600083815260200190815260200160002060010160009054906101000a900473ffffffffffffffffffffffffffffffffffffffff1673ffffffffffffffffffffffffffffffffffffffff161415610b49576040517f08c379a0000000000000000000000000000000000000000000000000000000008152600401610b409061145e565b60405180910390fd5b6001600083815260200190815260200160002060010160009054906101000a900473ffffffffffffffffffffffffffffffffffffffff1673ffffffffffffffffffffffffffffffffffffffff166323b872dd3330866040518463ffffffff1660e01b8152600401610bbc93929190611398565b602060405180830381600087803b158015610bd657600080fd5b505af1158015610bea573d6000803e3d6000fd5b505050506040513d601f19601f82011682018060405250810190610c0e9190610f0d565b5082600360003373ffffffffffffffffffffffffffffffffffffffff1673ffffffffffffffffffffffffffffffffffffffff16815260200190815260200160002060008481526020019081526020016000206000828254610c6f91906115a4565b92505081905550505050565b610c83610d73565b73ffffffffffffffffffffffffffffffffffffffff16610ca16104ef565b73ffffffffffffffffffffffffffffffffffffffff1614610cf7576040517f08c379a0000000000000000000000000000000000000000000000000000000008152600401610cee9061149e565b60405180910390fd5b600073ffffffffffffffffffffffffffffffffffffffff168173ffffffffffffffffffffffffffffffffffffffff161415610d67576040517f08c379a0000000000000000000000000000000000000000000000000000000008152600401610d5e9061147e565b60405180910390fd5b610d7081610d7b565b50565b600033905090565b60008060009054906101000a900473ffffffffffffffffffffffffffffffffffffffff169050816000806101000a81548173ffffffffffffffffffffffffffffffffffffffff021916908373ffffffffffffffffffffffffffffffffffffffff1602179055508173ffffffffffffffffffffffffffffffffffffffff168173ffffffffffffffffffffffffffffffffffffffff167f8be0079c531659141344cd1fd0a4f28419497f9722a3daafe3b4186f6b6457e060405160405180910390a35050565b600081359050610e4e81611771565b92915050565b600081519050610e6381611788565b92915050565b600081359050610e788161179f565b92915050565b600081359050610e8d816117b6565b92915050565b600081359050610ea2816117c6565b92915050565b600060208284031215610eba57600080fd5b6000610ec884828501610e3f565b91505092915050565b60008060408385031215610ee457600080fd5b6000610ef285828601610e3f565b9250506020610f0385828601610e69565b9150509250929050565b600060208284031215610f1f57600080fd5b6000610f2d84828501610e54565b91505092915050565b600060208284031215610f4857600080fd5b6000610f5684828501610e69565b91505092915050565b60008060408385031215610f7257600080fd5b6000610f8085828601610e69565b9250506020610f9185828601610e3f565b9150509250929050565b60008060408385031215610fae57600080fd5b6000610fbc85828601610e69565b9250506020610fcd85828601610e7e565b9150509250929050565b600080600060608486031215610fec57600080fd5b6000610ffa86828701610e69565b935050602061100b86828701610e93565b925050604061101c86828701610e93565b9150509250925092565b6000806000806080858703121561103c57600080fd5b600061104a87828801610e7e565b945050602061105b87828801610e69565b935050604061106c87828801610e93565b925050606061107d87828801610e93565b91505092959194509250565b60006020828403121561109b57600080fd5b60006110a984828501610e93565b91505092915050565b600080604083850312156110c557600080fd5b60006110d385828601610e93565b92505060206110e485828601610e69565b9150509250929050565b60006110fa83836112e4565b60c08301905092915050565b61110f81611688565b82525050565b61111e81611688565b82525050565b600061112f8261156a565b6111398185611582565b93506111448361155a565b8060005b8381101561117557815161115c88826110ee565b975061116783611575565b925050600181019050611148565b5085935050505092915050565b61118b816116a6565b82525050565b61119a816116a6565b82525050565b6111a9816116ed565b82525050565b6111b8816116ed565b82525050565b60006111cb601383611593565b91507f546f6b656e20646f65736e2774206578697374000000000000000000000000006000830152602082019050919050565b600061120b602683611593565b91507f4f776e61626c653a206e6577206f776e657220697320746865207a65726f206160008301527f64647265737300000000000000000000000000000000000000000000000000006020830152604082019050919050565b6000611271602083611593565b91507f4f776e61626c653a2063616c6c6572206973206e6f7420746865206f776e65726000830152602082019050919050565b60006112b1601683611593565b91507f42616c616e6365206e6f742073756666696369656e74000000000000000000006000830152602082019050919050565b60c0820160008201516112fa600085018261135f565b50602082015161130d6020850182611106565b50604082015161132060408501826111a0565b5060608201516113336060850182611182565b506080820151611346608085018261135f565b5060a082015161135960a085018261135f565b50505050565b611368816116e3565b82525050565b611377816116e3565b82525050565b60006020820190506113926000830184611115565b92915050565b60006060820190506113ad6000830186611115565b6113ba6020830185611115565b6113c7604083018461136e565b949350505050565b60006040820190506113e46000830185611115565b6113f1602083018461136e565b9392505050565b600060208201905081810360008301526114128184611124565b905092915050565b600060208201905061142f6000830184611191565b92915050565b600060408201905061144a6000830185611191565b6114576020830184611115565b9392505050565b60006020820190508181036000830152611477816111be565b9050919050565b60006020820190508181036000830152611497816111fe565b9050919050565b600060208201905081810360008301526114b781611264565b9050919050565b600060208201905081810360008301526114d7816112a4565b9050919050565b60006020820190506114f3600083018461136e565b92915050565b600060c08201905061150e600083018961136e565b61151b6020830188611115565b61152860408301876111af565b6115356060830186611191565b611542608083018561136e565b61154f60a083018461136e565b979650505050505050565b6000819050602082019050919050565b600081519050919050565b6000602082019050919050565b600082825260208201905092915050565b600082825260208201905092915050565b60006115af826116e3565b91506115ba836116e3565b9250827fffffffffffffffffffffffffffffffffffffffffffffffffffffffffffffffff038211156115ef576115ee6116ff565b5b828201905092915050565b6000611605826116e3565b9150611610836116e3565b9250817fffffffffffffffffffffffffffffffffffffffffffffffffffffffffffffffff0483118215151615611649576116486116ff565b5b828202905092915050565b600061165f826116e3565b915061166a836116e3565b92508282101561167d5761167c6116ff565b5b828203905092915050565b6000611693826116c3565b9050919050565b60008115159050919050565b6000819050919050565b60008190506116be8261175d565b919050565b600073ffffffffffffffffffffffffffffffffffffffff82169050919050565b6000819050919050565b60006116f8826116b0565b9050919050565b7f4e487b7100000000000000000000000000000000000000000000000000000000600052601160045260246000fd5b7f4e487b7100000000000000000000000000000000000000000000000000000000600052602160045260246000fd5b6002811061176e5761176d61172e565b5b50565b61177a81611688565b811461178557600080fd5b50565b6117918161169a565b811461179c57600080fd5b50565b6117a8816116a6565b81146117b357600080fd5b50565b600281106117c357600080fd5b50565b6117cf816116e3565b81146117da57600080fd5b5056fea2646970667358221220bf9431030a092237832a0df7178925184768def5a3f1b0cf2fb80fbcc6dba1e364736f6c63430008000033",
  "immutableReferences": {},
  "source": "pragma solidity ^0.8.0;\n\nimport \"./Wallet.sol\";\n\ncontract DEX is Wallet {\n\n    enum Side{\n        BUY,\n        SELL\n    }\n\n    struct Order {\n        uint id;\n        address trader;\n        Side side;\n        bytes32 ticker;\n        uint amount;\n        uint price;\n    }\n\n    mapping(bytes32 => mapping(uint => Order[])) public orderBook;\n\n    function getOrderBook(bytes32 ticker, Side side) view public returns(Order[] memory){\n        return orderBook[ticker][uint(side)];\n    }\n\n    function createLimitOrder(Side side, bytes32 ticker, uint amount, uint price) public {\n        if(side == Side.BUY){\n            require(balances[msg.sender][\"ETH\"] >= amount * price);\n        }\n        // else{\n        //     require(balances[msg.sender][\"KCS\"])\n        // }\n    }\n\n\n}",
  "sourcePath": "/Users/ivanlieskov/Desktop/DEX/contracts/dex.sol",
  "compiler": {
    "name": "solc",
    "version": "0.8.0+commit.c7dfd78e.Emscripten.clang"
  },
  "schemaVersion": "3.4.7",
  "updatedAt": "2022-05-08T10:39:46.298Z",
  "devdoc": {
    "kind": "dev",
    "methods": {
      "owner()": {
        "details": "Returns the address of the current owner."
      },
      "renounceOwnership()": {
        "details": "Leaves the contract without owner. It will not be possible to call `onlyOwner` functions anymore. Can only be called by the current owner. NOTE: Renouncing ownership will leave the contract without an owner, thereby removing any functionality that is only available to the owner."
      },
      "transferOwnership(address)": {
        "details": "Transfers ownership of the contract to a new account (`newOwner`). Can only be called by the current owner."
      }
    },
    "version": 1
  },
  "userdoc": {
    "kind": "user",
    "methods": {},
    "version": 1
  }
}