{
  "contractName": "Wallet",
  "abi": [
    {
      "anonymous": false,
      "inputs": [
        {
          "indexed": true,
          "internalType": "address",
          "name": "previousOwner",
          "type": "address"
        },
        {
          "indexed": true,
          "internalType": "address",
          "name": "newOwner",
          "type": "address"
        }
      ],
      "name": "OwnershipTransferred",
      "type": "event"
    },
    {
      "inputs": [
        {
          "internalType": "address",
          "name": "",
          "type": "address"
        },
        {
          "internalType": "bytes32",
          "name": "",
          "type": "bytes32"
        }
      ],
      "name": "balances",
      "outputs": [
        {
          "internalType": "uint256",
          "name": "",
          "type": "uint256"
        }
      ],
      "stateMutability": "view",
      "type": "function"
    },
    {
      "inputs": [],
      "name": "owner",
      "outputs": [
        {
          "internalType": "address",
          "name": "",
          "type": "address"
        }
      ],
      "stateMutability": "view",
      "type": "function"
    },
    {
      "inputs": [],
      "name": "renounceOwnership",
      "outputs": [],
      "stateMutability": "nonpayable",
      "type": "function"
    },
    {
      "inputs": [
        {
          "internalType": "uint256",
          "name": "",
          "type": "uint256"
        }
      ],
      "name": "tokenList",
      "outputs": [
        {
          "internalType": "bytes32",
          "name": "",
          "type": "bytes32"
        }
      ],
      "stateMutability": "view",
      "type": "function"
    },
    {
      "inputs": [
        {
          "internalType": "bytes32",
          "name": "",
          "type": "bytes32"
        }
      ],
      "name": "tokenMapping",
      "outputs": [
        {
          "internalType": "bytes32",
          "name": "ticker",
          "type": "bytes32"
        },
        {
          "internalType": "address",
          "name": "tokenAddress",
          "type": "address"
        }
      ],
      "stateMutability": "view",
      "type": "function"
    },
    {
      "inputs": [
        {
          "internalType": "address",
          "name": "newOwner",
          "type": "address"
        }
      ],
      "name": "transferOwnership",
      "outputs": [],
      "stateMutability": "nonpayable",
      "type": "function"
    },
    {
      "inputs": [
        {
          "internalType": "bytes32",
          "name": "ticker",
          "type": "bytes32"
        },
        {
          "internalType": "address",
          "name": "tokenAddress",
          "type": "address"
        }
      ],
      "name": "addToken",
      "outputs": [],
      "stateMutability": "nonpayable",
      "type": "function"
    },
    {
      "inputs": [
        {
          "internalType": "uint256",
          "name": "amount",
          "type": "uint256"
        },
        {
          "internalType": "bytes32",
          "name": "ticker",
          "type": "bytes32"
        }
      ],
      "name": "deposit",
      "outputs": [],
      "stateMutability": "nonpayable",
      "type": "function"
    },
    {
      "inputs": [
        {
          "internalType": "uint256",
          "name": "amount",
          "type": "uint256"
        },
        {
          "internalType": "bytes32",
          "name": "ticker",
          "type": "bytes32"
        }
      ],
      "name": "withdraw",
      "outputs": [],
      "stateMutability": "nonpayable",
      "type": "function"
    }
  ],
  "bytecode": "0x608060405234801561001057600080fd5b5061002d61002261003260201b60201c565b61003a60201b60201c565b6100fe565b600033905090565b60008060009054906101000a900473ffffffffffffffffffffffffffffffffffffffff169050816000806101000a81548173ffffffffffffffffffffffffffffffffffffffff021916908373ffffffffffffffffffffffffffffffffffffffff1602179055508173ffffffffffffffffffffffffffffffffffffffff168173ffffffffffffffffffffffffffffffffffffffff167f8be0079c531659141344cd1fd0a4f28419497f9722a3daafe3b4186f6b6457e060405160405180910390a35050565b6110488061010d6000396000f3fe608060405234801561001057600080fd5b50600436106100935760003560e01c80639776aacf116100665780639776aacf146101215780639ead72221461013d578063a8d2021a1461016d578063c9630cb014610189578063f2fde38b146101a557610093565b80631f14df6914610098578063667cb4ba146100c8578063715018a6146100f95780638da5cb5b14610103575b600080fd5b6100b260048036038101906100ad9190610abe565b6101c1565b6040516100bf9190610e7f565b60405180910390f35b6100e260048036038101906100dd9190610b23565b6101e6565b6040516100f0929190610dd6565b60405180910390f35b61010161022a565b005b61010b6102b2565b6040516101189190610d40565b60405180910390f35b61013b60048036038101906101369190610b4c565b6102db565b005b61015760048036038101906101529190610b88565b610416565b6040516101649190610dbb565b60405180910390f35b61018760048036038101906101829190610bb1565b61043a565b005b6101a3600480360381019061019e9190610bb1565b6106a4565b005b6101bf60048036038101906101ba9190610a95565b61087d565b005b6003602052816000526040600020602052806000526040600020600091509150505481565b60016020528060005260406000206000915090508060000154908060010160009054906101000a900473ffffffffffffffffffffffffffffffffffffffff16905082565b610232610975565b73ffffffffffffffffffffffffffffffffffffffff166102506102b2565b73ffffffffffffffffffffffffffffffffffffffff16146102a6576040517f08c379a000000000000000000000000000000000000000000000000000000000815260040161029d90610e3f565b60405180910390fd5b6102b0600061097d565b565b60008060009054906101000a900473ffffffffffffffffffffffffffffffffffffffff16905090565b6102e3610975565b73ffffffffffffffffffffffffffffffffffffffff166103016102b2565b73ffffffffffffffffffffffffffffffffffffffff1614610357576040517f08c379a000000000000000000000000000000000000000000000000000000000815260040161034e90610e3f565b60405180910390fd5b60405180604001604052808381526020018273ffffffffffffffffffffffffffffffffffffffff16815250600160008481526020019081526020016000206000820151816000015560208201518160010160006101000a81548173ffffffffffffffffffffffffffffffffffffffff021916908373ffffffffffffffffffffffffffffffffffffffff16021790555090505060028290806001815401808255809150506001900390600052602060002001600090919091909150555050565b6002818154811061042657600080fd5b906000526020600020016000915090505481565b80600073ffffffffffffffffffffffffffffffffffffffff166001600083815260200190815260200160002060010160009054906101000a900473ffffffffffffffffffffffffffffffffffffffff1673ffffffffffffffffffffffffffffffffffffffff1614156104e1576040517f08c379a00000000000000000000000000000000000000000000000000000000081526004016104d890610dff565b60405180910390fd5b82600360003373ffffffffffffffffffffffffffffffffffffffff1673ffffffffffffffffffffffffffffffffffffffff1681526020019081526020016000206000848152602001908152602001600020541015610574576040517f08c379a000000000000000000000000000000000000000000000000000000000815260040161056b90610e5f565b60405180910390fd5b82600360003373ffffffffffffffffffffffffffffffffffffffff1673ffffffffffffffffffffffffffffffffffffffff168152602001908152602001600020600084815260200190815260200160002060008282546105d49190610f01565b925050819055506001600083815260200190815260200160002060010160009054906101000a900473ffffffffffffffffffffffffffffffffffffffff1673ffffffffffffffffffffffffffffffffffffffff1663a9059cbb33856040518363ffffffff1660e01b815260040161064c929190610d92565b602060405180830381600087803b15801561066657600080fd5b505af115801561067a573d6000803e3d6000fd5b505050506040513d601f19601f8201168201806040525081019061069e9190610afa565b50505050565b80600073ffffffffffffffffffffffffffffffffffffffff166001600083815260200190815260200160002060010160009054906101000a900473ffffffffffffffffffffffffffffffffffffffff1673ffffffffffffffffffffffffffffffffffffffff16141561074b576040517f08c379a000000000000000000000000000000000000000000000000000000000815260040161074290610dff565b60405180910390fd5b6001600083815260200190815260200160002060010160009054906101000a900473ffffffffffffffffffffffffffffffffffffffff1673ffffffffffffffffffffffffffffffffffffffff166323b872dd3330866040518463ffffffff1660e01b81526004016107be93929190610d5b565b602060405180830381600087803b1580156107d857600080fd5b505af11580156107ec573d6000803e3d6000fd5b505050506040513d601f19601f820116820180604052508101906108109190610afa565b5082600360003373ffffffffffffffffffffffffffffffffffffffff1673ffffffffffffffffffffffffffffffffffffffff168152602001908152602001600020600084815260200190815260200160002060008282546108719190610eab565b92505081905550505050565b610885610975565b73ffffffffffffffffffffffffffffffffffffffff166108a36102b2565b73ffffffffffffffffffffffffffffffffffffffff16146108f9576040517f08c379a00000000000000000000000000000000000000000000000000000000081526004016108f090610e3f565b60405180910390fd5b600073ffffffffffffffffffffffffffffffffffffffff168173ffffffffffffffffffffffffffffffffffffffff161415610969576040517f08c379a000000000000000000000000000000000000000000000000000000000815260040161096090610e1f565b60405180910390fd5b6109728161097d565b50565b600033905090565b60008060009054906101000a900473ffffffffffffffffffffffffffffffffffffffff169050816000806101000a81548173ffffffffffffffffffffffffffffffffffffffff021916908373ffffffffffffffffffffffffffffffffffffffff1602179055508173ffffffffffffffffffffffffffffffffffffffff168173ffffffffffffffffffffffffffffffffffffffff167f8be0079c531659141344cd1fd0a4f28419497f9722a3daafe3b4186f6b6457e060405160405180910390a35050565b600081359050610a5081610fb6565b92915050565b600081519050610a6581610fcd565b92915050565b600081359050610a7a81610fe4565b92915050565b600081359050610a8f81610ffb565b92915050565b600060208284031215610aa757600080fd5b6000610ab584828501610a41565b91505092915050565b60008060408385031215610ad157600080fd5b6000610adf85828601610a41565b9250506020610af085828601610a6b565b9150509250929050565b600060208284031215610b0c57600080fd5b6000610b1a84828501610a56565b91505092915050565b600060208284031215610b3557600080fd5b6000610b4384828501610a6b565b91505092915050565b60008060408385031215610b5f57600080fd5b6000610b6d85828601610a6b565b9250506020610b7e85828601610a41565b9150509250929050565b600060208284031215610b9a57600080fd5b6000610ba884828501610a80565b91505092915050565b60008060408385031215610bc457600080fd5b6000610bd285828601610a80565b9250506020610be385828601610a6b565b9150509250929050565b610bf681610f35565b82525050565b610c0581610f53565b82525050565b6000610c18601383610e9a565b91507f546f6b656e20646f65736e2774206578697374000000000000000000000000006000830152602082019050919050565b6000610c58602683610e9a565b91507f4f776e61626c653a206e6577206f776e657220697320746865207a65726f206160008301527f64647265737300000000000000000000000000000000000000000000000000006020830152604082019050919050565b6000610cbe602083610e9a565b91507f4f776e61626c653a2063616c6c6572206973206e6f7420746865206f776e65726000830152602082019050919050565b6000610cfe601683610e9a565b91507f42616c616e6365206e6f742073756666696369656e74000000000000000000006000830152602082019050919050565b610d3a81610f7d565b82525050565b6000602082019050610d556000830184610bed565b92915050565b6000606082019050610d706000830186610bed565b610d7d6020830185610bed565b610d8a6040830184610d31565b949350505050565b6000604082019050610da76000830185610bed565b610db46020830184610d31565b9392505050565b6000602082019050610dd06000830184610bfc565b92915050565b6000604082019050610deb6000830185610bfc565b610df86020830184610bed565b9392505050565b60006020820190508181036000830152610e1881610c0b565b9050919050565b60006020820190508181036000830152610e3881610c4b565b9050919050565b60006020820190508181036000830152610e5881610cb1565b9050919050565b60006020820190508181036000830152610e7881610cf1565b9050919050565b6000602082019050610e946000830184610d31565b92915050565b600082825260208201905092915050565b6000610eb682610f7d565b9150610ec183610f7d565b9250827fffffffffffffffffffffffffffffffffffffffffffffffffffffffffffffffff03821115610ef657610ef5610f87565b5b828201905092915050565b6000610f0c82610f7d565b9150610f1783610f7d565b925082821015610f2a57610f29610f87565b5b828203905092915050565b6000610f4082610f5d565b9050919050565b60008115159050919050565b6000819050919050565b600073ffffffffffffffffffffffffffffffffffffffff82169050919050565b6000819050919050565b7f4e487b7100000000000000000000000000000000000000000000000000000000600052601160045260246000fd5b610fbf81610f35565b8114610fca57600080fd5b50565b610fd681610f47565b8114610fe157600080fd5b50565b610fed81610f53565b8114610ff857600080fd5b50565b61100481610f7d565b811461100f57600080fd5b5056fea264697066735822122013b7e2f702ae8ea0640ba7818312060bb08f94412abb9e8b15fd982ae27535f264736f6c63430008000033",
  "immutableReferences": {},
  "source": "pragma solidity ^0.8.0;\n\nimport \"../node_modules/@openzeppelin/contracts/token/ERC20/IERC20.sol\";\nimport \"../node_modules/@openzeppelin/contracts/access/Ownable.sol\";\n\ncontract Wallet is Ownable{\n\nstruct Token {\n    bytes32 ticker;\n    address tokenAddress;\n}\nmapping(bytes32 => Token) public tokenMapping;\nbytes32[] public tokenList;\n\nmapping(address => mapping( bytes32 => uint256 )) public balances;\n\nmodifier tokenExist(bytes32 ticker){\n    require (tokenMapping[ticker].tokenAddress != address(0), \"Token doesn't exist\");\n    _;\n}\n\nfunction addToken(bytes32 ticker, address tokenAddress) external onlyOwner{\n    tokenMapping[ticker] = Token(ticker, tokenAddress);\n    tokenList.push(ticker);\n}\n\nfunction deposit(uint amount, bytes32 ticker) external tokenExist(ticker) {\n    IERC20(tokenMapping[ticker].tokenAddress).transferFrom(msg.sender, address(this), amount);\n    balances[msg.sender][ticker] += amount;\n}\n\nfunction withdraw(uint amount, bytes32 ticker) external tokenExist(ticker) {\n    require (balances[msg.sender][ticker] >= amount, \"Balance not sufficient\");\n    balances[msg.sender][ticker] -= amount;\n    IERC20(tokenMapping[ticker].tokenAddress).transfer(msg.sender, amount);\n\n}\n\n}",
  "sourcePath": "/Users/ivanlieskov/Desktop/DEX/contracts/Wallet.sol",
  "compiler": {
    "name": "solc",
    "version": "0.8.0+commit.c7dfd78e.Emscripten.clang"
  },
  "schemaVersion": "3.4.7",
  "updatedAt": "2022-05-12T20:36:13.173Z",
  "devdoc": {
    "kind": "dev",
    "methods": {
      "owner()": {
        "details": "Returns the address of the current owner."
      },
      "renounceOwnership()": {
        "details": "Leaves the contract without owner. It will not be possible to call `onlyOwner` functions anymore. Can only be called by the current owner. NOTE: Renouncing ownership will leave the contract without an owner, thereby removing any functionality that is only available to the owner."
      },
      "transferOwnership(address)": {
        "details": "Transfers ownership of the contract to a new account (`newOwner`). Can only be called by the current owner."
      }
    },
    "version": 1
  },
  "userdoc": {
    "kind": "user",
    "methods": {},
    "version": 1
  }
}